{
  "_format": "hh-sol-artifact-1",
  "contractName": "CrossChainMessage",
  "sourceName": "contracts/CrossChainMessage.sol",
  "abi": [
    {
      "inputs": [
        {
          "internalType": "address",
          "name": "connectorAddress",
          "type": "address"
        },
        {
          "internalType": "address",
          "name": "zetaConsumerAddress",
          "type": "address"
        }
      ],
      "stateMutability": "nonpayable",
      "type": "constructor"
    },
    {
      "inputs": [],
      "name": "InvalidAddress",
      "type": "error"
    },
    {
      "inputs": [
        {
          "internalType": "address",
          "name": "caller",
          "type": "address"
        }
      ],
      "name": "InvalidCaller",
      "type": "error"
    },
    {
      "inputs": [],
      "name": "InvalidDestinationChainId",
      "type": "error"
    },
    {
      "inputs": [],
      "name": "InvalidZetaMessageCall",
      "type": "error"
    },
    {
      "inputs": [],
      "name": "InvalidZetaRevertCall",
      "type": "error"
    },
    {
      "anonymous": false,
      "inputs": [
        {
          "indexed": false,
          "internalType": "string",
          "name": "",
          "type": "string"
        }
      ],
      "name": "CrossChainMessageEvent",
      "type": "event"
    },
    {
      "anonymous": false,
      "inputs": [
        {
          "indexed": false,
          "internalType": "string",
          "name": "",
          "type": "string"
        }
      ],
      "name": "CrossChainMessageRevertedEvent",
      "type": "event"
    },
    {
      "anonymous": false,
      "inputs": [
        {
          "indexed": true,
          "internalType": "address",
          "name": "previousOwner",
          "type": "address"
        },
        {
          "indexed": true,
          "internalType": "address",
          "name": "newOwner",
          "type": "address"
        }
      ],
      "name": "OwnershipTransferStarted",
      "type": "event"
    },
    {
      "anonymous": false,
      "inputs": [
        {
          "indexed": true,
          "internalType": "address",
          "name": "previousOwner",
          "type": "address"
        },
        {
          "indexed": true,
          "internalType": "address",
          "name": "newOwner",
          "type": "address"
        }
      ],
      "name": "OwnershipTransferred",
      "type": "event"
    },
    {
      "inputs": [],
      "name": "acceptOwnership",
      "outputs": [],
      "stateMutability": "nonpayable",
      "type": "function"
    },
    {
      "inputs": [],
      "name": "connector",
      "outputs": [
        {
          "internalType": "contract ZetaConnector",
          "name": "",
          "type": "address"
        }
      ],
      "stateMutability": "view",
      "type": "function"
    },
    {
      "inputs": [
        {
          "internalType": "uint256",
          "name": "",
          "type": "uint256"
        }
      ],
      "name": "interactorsByChainId",
      "outputs": [
        {
          "internalType": "bytes",
          "name": "",
          "type": "bytes"
        }
      ],
      "stateMutability": "view",
      "type": "function"
    },
    {
      "inputs": [
        {
          "components": [
            {
              "internalType": "bytes",
              "name": "zetaTxSenderAddress",
              "type": "bytes"
            },
            {
              "internalType": "uint256",
              "name": "sourceChainId",
              "type": "uint256"
            },
            {
              "internalType": "address",
              "name": "destinationAddress",
              "type": "address"
            },
            {
              "internalType": "uint256",
              "name": "zetaValue",
              "type": "uint256"
            },
            {
              "internalType": "bytes",
              "name": "message",
              "type": "bytes"
            }
          ],
          "internalType": "struct ZetaInterfaces.ZetaMessage",
          "name": "zetaMessage",
          "type": "tuple"
        }
      ],
      "name": "onZetaMessage",
      "outputs": [],
      "stateMutability": "nonpayable",
      "type": "function"
    },
    {
      "inputs": [
        {
          "components": [
            {
              "internalType": "address",
              "name": "zetaTxSenderAddress",
              "type": "address"
            },
            {
              "internalType": "uint256",
              "name": "sourceChainId",
              "type": "uint256"
            },
            {
              "internalType": "bytes",
              "name": "destinationAddress",
              "type": "bytes"
            },
            {
              "internalType": "uint256",
              "name": "destinationChainId",
              "type": "uint256"
            },
            {
              "internalType": "uint256",
              "name": "remainingZetaValue",
              "type": "uint256"
            },
            {
              "internalType": "bytes",
              "name": "message",
              "type": "bytes"
            }
          ],
          "internalType": "struct ZetaInterfaces.ZetaRevert",
          "name": "zetaRevert",
          "type": "tuple"
        }
      ],
      "name": "onZetaRevert",
      "outputs": [],
      "stateMutability": "nonpayable",
      "type": "function"
    },
    {
      "inputs": [],
      "name": "owner",
      "outputs": [
        {
          "internalType": "address",
          "name": "",
          "type": "address"
        }
      ],
      "stateMutability": "view",
      "type": "function"
    },
    {
      "inputs": [],
      "name": "pendingOwner",
      "outputs": [
        {
          "internalType": "address",
          "name": "",
          "type": "address"
        }
      ],
      "stateMutability": "view",
      "type": "function"
    },
    {
      "inputs": [],
      "name": "renounceOwnership",
      "outputs": [],
      "stateMutability": "nonpayable",
      "type": "function"
    },
    {
      "inputs": [
        {
          "internalType": "uint256",
          "name": "destinationChainId",
          "type": "uint256"
        },
        {
          "internalType": "string",
          "name": "message",
          "type": "string"
        }
      ],
      "name": "sendMessage",
      "outputs": [],
      "stateMutability": "payable",
      "type": "function"
    },
    {
      "inputs": [
        {
          "internalType": "uint256",
          "name": "destinationChainId",
          "type": "uint256"
        },
        {
          "internalType": "bytes",
          "name": "contractAddress",
          "type": "bytes"
        }
      ],
      "name": "setInteractorByChainId",
      "outputs": [],
      "stateMutability": "nonpayable",
      "type": "function"
    },
    {
      "inputs": [
        {
          "internalType": "address",
          "name": "newOwner",
          "type": "address"
        }
      ],
      "name": "transferOwnership",
      "outputs": [],
      "stateMutability": "nonpayable",
      "type": "function"
    }
  ],
  "bytecode": "0x6101006040523480156200001257600080fd5b5060405162001ce138038062001ce183398181016040528101906200003891906200034b565b81620000596200004d620001f860201b60201c565b6200020060201b60201c565b600073ffffffffffffffffffffffffffffffffffffffff168173ffffffffffffffffffffffffffffffffffffffff161415620000c1576040517fe6c4247b00000000000000000000000000000000000000000000000000000000815260040160405180910390fd5b46608081815250508073ffffffffffffffffffffffffffffffffffffffff1660a08173ffffffffffffffffffffffffffffffffffffffff1660601b81525050508173ffffffffffffffffffffffffffffffffffffffff166321e093b16040518163ffffffff1660e01b815260040160206040518083038186803b1580156200014857600080fd5b505afa1580156200015d573d6000803e3d6000fd5b505050506040513d601f19601f8201168201806040525081019062000183919062000319565b73ffffffffffffffffffffffffffffffffffffffff1660e08173ffffffffffffffffffffffffffffffffffffffff1660601b815250508073ffffffffffffffffffffffffffffffffffffffff1660c08173ffffffffffffffffffffffffffffffffffffffff1660601b815250505050620003e5565b600033905090565b600160006101000a81549073ffffffffffffffffffffffffffffffffffffffff02191690556200023b816200023e60201b62000a111760201c565b50565b60008060009054906101000a900473ffffffffffffffffffffffffffffffffffffffff169050816000806101000a81548173ffffffffffffffffffffffffffffffffffffffff021916908373ffffffffffffffffffffffffffffffffffffffff1602179055508173ffffffffffffffffffffffffffffffffffffffff168173ffffffffffffffffffffffffffffffffffffffff167f8be0079c531659141344cd1fd0a4f28419497f9722a3daafe3b4186f6b6457e060405160405180910390a35050565b6000815190506200031381620003cb565b92915050565b600060208284031215620003325762000331620003c6565b5b6000620003428482850162000302565b91505092915050565b60008060408385031215620003655762000364620003c6565b5b6000620003758582860162000302565b9250506020620003888582860162000302565b9150509250929050565b60006200039f82620003a6565b9050919050565b600073ffffffffffffffffffffffffffffffffffffffff82169050919050565b600080fd5b620003d68162000392565b8114620003e257600080fd5b50565b60805160a05160601c60c05160601c60e05160601c6118a76200043a60003960006106d70152600061062701526000818161058c01528181610713015281816107a50152610ad70152600050506118a76000f3fe60806040526004361061009c5760003560e01c806379ba50971161006457806379ba50971461017057806383f3084f146101875780638da5cb5b146101b2578063aae8b592146101dd578063e30c3978146101f9578063f2fde38b146102245761009c565b80632618143f146100a15780633749c51a146100de5780633ff0693c146101075780634fd3f7d714610130578063715018a614610159575b600080fd5b3480156100ad57600080fd5b506100c860048036038101906100c39190610fd5565b61024d565b6040516100d591906113ea565b60405180910390f35b3480156100ea57600080fd5b5061010560048036038101906101009190610f43565b6102ed565b005b34801561011357600080fd5b5061012e60048036038101906101299190610f8c565b6103dc565b005b34801561013c57600080fd5b506101576004803603810190610152919061102f565b6104b9565b005b34801561016557600080fd5b5061016e6104e9565b005b34801561017c57600080fd5b506101856104fd565b005b34801561019357600080fd5b5061019c61058a565b6040516101a9919061140c565b60405180910390f35b3480156101be57600080fd5b506101c76105ae565b6040516101d491906113a6565b60405180910390f35b6101f760048036038101906101f2919061108f565b6105d7565b005b34801561020557600080fd5b5061020e61093a565b60405161021b91906113a6565b60405180910390f35b34801561023057600080fd5b5061024b60048036038101906102469190610ea0565b610964565b005b6002602052806000526040600020600091509050805461026c906116ad565b80601f0160208091040260200160405190810160405280929190818152602001828054610298906116ad565b80156102e55780601f106102ba576101008083540402835291602001916102e5565b820191906000526020600020905b8154815290600101906020018083116102c857829003601f168201915b505050505081565b806102f6610ad5565b600260008260200135815260200190815260200160002060405161031a919061138f565b604051809103902081806000019061033291906114cb565b604051610340929190611376565b60405180910390201461037f576040517fb473eb0a00000000000000000000000000000000000000000000000000000000815260040160405180910390fd5b600082806080019061039191906114cb565b81019061039e9190610efa565b90507f89f1023ff2069d6a24e4689d14237c99658adb611d7118f04a217a3d706b072f816040516103cf9190611427565b60405180910390a1505050565b806103e5610ad5565b3073ffffffffffffffffffffffffffffffffffffffff1681600001602081019061040f9190610ea0565b73ffffffffffffffffffffffffffffffffffffffff161461045c576040517fc03e9c3f00000000000000000000000000000000000000000000000000000000815260040160405180910390fd5b6000828060a0019061046e91906114cb565b81019061047b9190610efa565b90507f5e10fdf4af8efbf1252f727adce54e16f0d618219c3cb90d2b5fd1094bf7a7ea816040516104ac9190611427565b60405180910390a1505050565b6104c1610b67565b81816002600086815260200190815260200160002091906104e3929190610ca5565b50505050565b6104f1610b67565b6104fb6000610be5565b565b6000610507610c16565b90508073ffffffffffffffffffffffffffffffffffffffff1661052861093a565b73ffffffffffffffffffffffffffffffffffffffff161461057e576040517f08c379a000000000000000000000000000000000000000000000000000000000815260040161057590611449565b60405180910390fd5b61058781610be5565b50565b7f000000000000000000000000000000000000000000000000000000000000000081565b60008060009054906101000a900473ffffffffffffffffffffffffffffffffffffffff16905090565b6105e082610c1e565b610616576040517f90eaaa7000000000000000000000000000000000000000000000000000000000815260040160405180910390fd5b6000671bc16d674ec80000905060007f000000000000000000000000000000000000000000000000000000000000000073ffffffffffffffffffffffffffffffffffffffff1663013b2ff83430856040518463ffffffff1660e01b81526004016106819291906113c1565b6020604051808303818588803b15801561069a57600080fd5b505af11580156106ae573d6000803e3d6000fd5b50505050506040513d601f19601f820116820180604052508101906106d39190611002565b90507f000000000000000000000000000000000000000000000000000000000000000073ffffffffffffffffffffffffffffffffffffffff1663095ea7b37f0000000000000000000000000000000000000000000000000000000000000000836040518363ffffffff1660e01b81526004016107509291906113c1565b602060405180830381600087803b15801561076a57600080fd5b505af115801561077e573d6000803e3d6000fd5b505050506040513d601f19601f820116820180604052508101906107a29190610ecd565b507f000000000000000000000000000000000000000000000000000000000000000073ffffffffffffffffffffffffffffffffffffffff1663ec0269016040518060c0016040528087815260200160026000898152602001908152602001600020805461080e906116ad565b80601f016020809104026020016040519081016040528092919081815260200182805461083a906116ad565b80156108875780601f1061085c57610100808354040283529160200191610887565b820191906000526020600020905b81548152906001019060200180831161086a57829003601f168201915b50505050508152602001620493e08152602001866040516020016108ab9190611427565b60405160208183030381529060405281526020018481526020016040516020016108d490611489565b6040516020818303038152906040528152506040518263ffffffff1660e01b815260040161090291906114a9565b600060405180830381600087803b15801561091c57600080fd5b505af1158015610930573d6000803e3d6000fd5b5050505050505050565b6000600160009054906101000a900473ffffffffffffffffffffffffffffffffffffffff16905090565b61096c610b67565b80600160006101000a81548173ffffffffffffffffffffffffffffffffffffffff021916908373ffffffffffffffffffffffffffffffffffffffff1602179055508073ffffffffffffffffffffffffffffffffffffffff166109cc6105ae565b73ffffffffffffffffffffffffffffffffffffffff167f38d16b8cac22d99fc7c124b9cd0de2d3fa1faef420bfe791d8c362d765e2270060405160405180910390a350565b60008060009054906101000a900473ffffffffffffffffffffffffffffffffffffffff169050816000806101000a81548173ffffffffffffffffffffffffffffffffffffffff021916908373ffffffffffffffffffffffffffffffffffffffff1602179055508173ffffffffffffffffffffffffffffffffffffffff168173ffffffffffffffffffffffffffffffffffffffff167f8be0079c531659141344cd1fd0a4f28419497f9722a3daafe3b4186f6b6457e060405160405180910390a35050565b7f000000000000000000000000000000000000000000000000000000000000000073ffffffffffffffffffffffffffffffffffffffff163373ffffffffffffffffffffffffffffffffffffffff1614610b6557336040517fcbd9d2e0000000000000000000000000000000000000000000000000000000008152600401610b5c91906113a6565b60405180910390fd5b565b610b6f610c16565b73ffffffffffffffffffffffffffffffffffffffff16610b8d6105ae565b73ffffffffffffffffffffffffffffffffffffffff1614610be3576040517f08c379a0000000000000000000000000000000000000000000000000000000008152600401610bda90611469565b60405180910390fd5b565b600160006101000a81549073ffffffffffffffffffffffffffffffffffffffff0219169055610c1381610a11565b50565b600033905090565b60008067ffffffffffffffff811115610c3a57610c3961173f565b5b6040519080825280601f01601f191660200182016040528015610c6c5781602001600182028036833780820191505090505b508051906020012060026000848152602001908152602001600020604051610c94919061138f565b604051809103902014159050919050565b828054610cb1906116ad565b90600052602060002090601f016020900481019282610cd35760008555610d1a565b82601f10610cec57803560ff1916838001178555610d1a565b82800160010185558215610d1a579182015b82811115610d19578235825591602001919060010190610cfe565b5b509050610d279190610d2b565b5090565b5b80821115610d44576000816000905550600101610d2c565b5090565b6000610d5b610d5684611553565b61152e565b905082815260208101848484011115610d7757610d76611791565b5b610d8284828561166b565b509392505050565b600081359050610d998161182c565b92915050565b600081519050610dae81611843565b92915050565b60008083601f840112610dca57610dc9611773565b5b8235905067ffffffffffffffff811115610de757610de661176e565b5b602083019150836001820283011115610e0357610e02611787565b5b9250929050565b600082601f830112610e1f57610e1e611773565b5b8135610e2f848260208601610d48565b91505092915050565b600060a08284031215610e4e57610e4d61177d565b5b81905092915050565b600060c08284031215610e6d57610e6c61177d565b5b81905092915050565b600081359050610e858161185a565b92915050565b600081519050610e9a8161185a565b92915050565b600060208284031215610eb657610eb561179b565b5b6000610ec484828501610d8a565b91505092915050565b600060208284031215610ee357610ee261179b565b5b6000610ef184828501610d9f565b91505092915050565b600060208284031215610f1057610f0f61179b565b5b600082013567ffffffffffffffff811115610f2e57610f2d611796565b5b610f3a84828501610e0a565b91505092915050565b600060208284031215610f5957610f5861179b565b5b600082013567ffffffffffffffff811115610f7757610f76611796565b5b610f8384828501610e38565b91505092915050565b600060208284031215610fa257610fa161179b565b5b600082013567ffffffffffffffff811115610fc057610fbf611796565b5b610fcc84828501610e57565b91505092915050565b600060208284031215610feb57610fea61179b565b5b6000610ff984828501610e76565b91505092915050565b6000602082840312156110185761101761179b565b5b600061102684828501610e8b565b91505092915050565b6000806000604084860312156110485761104761179b565b5b600061105686828701610e76565b935050602084013567ffffffffffffffff81111561107757611076611796565b5b61108386828701610db4565b92509250509250925092565b600080604083850312156110a6576110a561179b565b5b60006110b485828601610e76565b925050602083013567ffffffffffffffff8111156110d5576110d4611796565b5b6110e185828601610e0a565b9150509250929050565b6110f4816115ed565b82525050565b600061110683856115d1565b935061111383858461166b565b82840190509392505050565b600061112a82611599565b61113481856115af565b935061114481856020860161167a565b61114d816117a0565b840191505092915050565b600061116382611599565b61116d81856115c0565b935061117d81856020860161167a565b611186816117a0565b840191505092915050565b6000815461119e816116ad565b6111a881866115d1565b945060018216600081146111c357600181146111d457611207565b60ff19831686528186019350611207565b6111dd85611584565b60005b838110156111ff578154818901526001820191506020810190506111e0565b838801955050505b50505092915050565b61121981611635565b82525050565b600061122a826115a4565b61123481856115dc565b935061124481856020860161167a565b61124d816117a0565b840191505092915050565b60006112656029836115dc565b9150611270826117b1565b604082019050919050565b60006112886020836115dc565b915061129382611800565b602082019050919050565b60006112ab6000836115dc565b91506112b682611829565b600082019050919050565b600060c0830160008301516112d96000860182611358565b50602083015184820360208601526112f1828261111f565b91505060408301516113066040860182611358565b506060830151848203606086015261131e828261111f565b91505060808301516113336080860182611358565b5060a083015184820360a086015261134b828261111f565b9150508091505092915050565b6113618161162b565b82525050565b6113708161162b565b82525050565b60006113838284866110fa565b91508190509392505050565b600061139b8284611191565b915081905092915050565b60006020820190506113bb60008301846110eb565b92915050565b60006040820190506113d660008301856110eb565b6113e36020830184611367565b9392505050565b600060208201905081810360008301526114048184611158565b905092915050565b60006020820190506114216000830184611210565b92915050565b60006020820190508181036000830152611441818461121f565b905092915050565b6000602082019050818103600083015261146281611258565b9050919050565b600060208201905081810360008301526114828161127b565b9050919050565b600060208201905081810360008301526114a28161129e565b9050919050565b600060208201905081810360008301526114c381846112c1565b905092915050565b600080833560016020038436030381126114e8576114e7611782565b5b80840192508235915067ffffffffffffffff82111561150a57611509611778565b5b6020830192506001820236038313156115265761152561178c565b5b509250929050565b6000611538611549565b905061154482826116df565b919050565b6000604051905090565b600067ffffffffffffffff82111561156e5761156d61173f565b5b611577826117a0565b9050602081019050919050565b60008190508160005260206000209050919050565b600081519050919050565b600081519050919050565b600082825260208201905092915050565b600082825260208201905092915050565b600081905092915050565b600082825260208201905092915050565b60006115f88261160b565b9050919050565b60008115159050919050565b600073ffffffffffffffffffffffffffffffffffffffff82169050919050565b6000819050919050565b600061164082611647565b9050919050565b600061165282611659565b9050919050565b60006116648261160b565b9050919050565b82818337600083830152505050565b60005b8381101561169857808201518184015260208101905061167d565b838111156116a7576000848401525b50505050565b600060028204905060018216806116c557607f821691505b602082108114156116d9576116d8611710565b5b50919050565b6116e8826117a0565b810181811067ffffffffffffffff821117156117075761170661173f565b5b80604052505050565b7f4e487b7100000000000000000000000000000000000000000000000000000000600052602260045260246000fd5b7f4e487b7100000000000000000000000000000000000000000000000000000000600052604160045260246000fd5b600080fd5b600080fd5b600080fd5b600080fd5b600080fd5b600080fd5b600080fd5b600080fd5b600080fd5b600080fd5b6000601f19601f8301169050919050565b7f4f776e61626c6532537465703a2063616c6c6572206973206e6f74207468652060008201527f6e6577206f776e65720000000000000000000000000000000000000000000000602082015250565b7f4f776e61626c653a2063616c6c6572206973206e6f7420746865206f776e6572600082015250565b50565b611835816115ed565b811461184057600080fd5b50565b61184c816115ff565b811461185757600080fd5b50565b6118638161162b565b811461186e57600080fd5b5056fea26469706673582212208de59bf54338f72511190486b3563b743ecc5500b4321271a4e3c7816ea0e1ce64736f6c63430008070033",
  "linkReferences": {},
  "deployedLinkReferences": {}
}