{
  "_format": "hh-sol-artifact-1",
  "contractName": "Swap",
  "sourceName": "contracts/Swap.sol",
  "abi": [
    {
      "inputs": [
        {
          "internalType": "address",
          "name": "systemContractAddress",
          "type": "address"
        }
      ],
      "stateMutability": "nonpayable",
      "type": "constructor"
    },
    {
      "inputs": [
        {
          "internalType": "string",
          "name": "",
          "type": "string"
        }
      ],
      "name": "OnlySystemContract",
      "type": "error"
    },
    {
      "inputs": [
        {
          "components": [
            {
              "internalType": "bytes",
              "name": "origin",
              "type": "bytes"
            },
            {
              "internalType": "address",
              "name": "sender",
              "type": "address"
            },
            {
              "internalType": "uint256",
              "name": "chainID",
              "type": "uint256"
            }
          ],
          "internalType": "struct zContext",
          "name": "context",
          "type": "tuple"
        },
        {
          "internalType": "address",
          "name": "zrc20",
          "type": "address"
        },
        {
          "internalType": "uint256",
          "name": "amount",
          "type": "uint256"
        },
        {
          "internalType": "bytes",
          "name": "message",
          "type": "bytes"
        }
      ],
      "name": "onCrossChainCall",
      "outputs": [],
      "stateMutability": "nonpayable",
      "type": "function"
    },
    {
      "inputs": [],
      "name": "systemContract",
      "outputs": [
        {
          "internalType": "contract SystemContract",
          "name": "",
          "type": "address"
        }
      ],
      "stateMutability": "view",
      "type": "function"
    }
  ],
  "bytecode": "0x608060405234801561001057600080fd5b506040516107483803806107488339818101604052810190610032919061008d565b806000806101000a81548173ffffffffffffffffffffffffffffffffffffffff021916908373ffffffffffffffffffffffffffffffffffffffff16021790555050610108565b600081519050610087816100f1565b92915050565b6000602082840312156100a3576100a26100ec565b5b60006100b184828501610078565b91505092915050565b60006100c5826100cc565b9050919050565b600073ffffffffffffffffffffffffffffffffffffffff82169050919050565b600080fd5b6100fa816100ba565b811461010557600080fd5b50565b610631806101176000396000f3fe608060405234801561001057600080fd5b50600436106100365760003560e01c8063bb88b7691461003b578063de43156e14610059575b600080fd5b610043610075565b604051610050919061039e565b60405180910390f35b610073600480360381019061006e91906102c8565b610099565b005b60008054906101000a900473ffffffffffffffffffffffffffffffffffffffff1681565b60008054906101000a900473ffffffffffffffffffffffffffffffffffffffff168073ffffffffffffffffffffffffffffffffffffffff163373ffffffffffffffffffffffffffffffffffffffff1614610128576040517f14c6658d00000000000000000000000000000000000000000000000000000000815260040161011f906103b9565b60405180910390fd5b600080848481019061013a919061026c565b915091505050505050505050565b600061015b610156846103fe565b6103d9565b90508281526020810184848401111561017757610176610547565b5b6101828482856104c4565b509392505050565b600081359050610199816105b6565b92915050565b6000813590506101ae816105cd565b92915050565b60008083601f8401126101ca576101c9610538565b5b8235905067ffffffffffffffff8111156101e7576101e6610533565b5b60208301915083600182028301111561020357610202610542565b5b9250929050565b600082601f83011261021f5761021e610538565b5b813561022f848260208601610148565b91505092915050565b60006060828403121561024e5761024d61053d565b5b81905092915050565b600081359050610266816105e4565b92915050565b6000806040838503121561028357610282610551565b5b60006102918582860161019f565b925050602083013567ffffffffffffffff8111156102b2576102b161054c565b5b6102be8582860161020a565b9150509250929050565b6000806000806000608086880312156102e4576102e3610551565b5b600086013567ffffffffffffffff8111156103025761030161054c565b5b61030e88828901610238565b955050602061031f8882890161018a565b945050604061033088828901610257565b935050606086013567ffffffffffffffff8111156103515761035061054c565b5b61035d888289016101b4565b92509250509295509295909350565b6103758161048e565b82525050565b6000610388602b8361042f565b915061039382610567565b604082019050919050565b60006020820190506103b3600083018461036c565b92915050565b600060208201905081810360008301526103d28161037b565b9050919050565b60006103e36103f4565b90506103ef82826104d3565b919050565b6000604051905090565b600067ffffffffffffffff82111561041957610418610504565b5b61042282610556565b9050602081019050919050565b600082825260208201905092915050565b600061044b82610464565b9050919050565b600061045d82610464565b9050919050565b600073ffffffffffffffffffffffffffffffffffffffff82169050919050565b6000819050919050565b6000610499826104a0565b9050919050565b60006104ab826104b2565b9050919050565b60006104bd82610464565b9050919050565b82818337600083830152505050565b6104dc82610556565b810181811067ffffffffffffffff821117156104fb576104fa610504565b5b80604052505050565b7f4e487b7100000000000000000000000000000000000000000000000000000000600052604160045260246000fd5b600080fd5b600080fd5b600080fd5b600080fd5b600080fd5b600080fd5b600080fd5b6000601f19601f8301169050919050565b7f4f6e6c792073797374656d20636f6e74726163742063616e2063616c6c20746860008201527f69732066756e6374696f6e000000000000000000000000000000000000000000602082015250565b6105bf81610440565b81146105ca57600080fd5b50565b6105d681610452565b81146105e157600080fd5b50565b6105ed81610484565b81146105f857600080fd5b5056fea2646970667358221220be672332839e05ec3ba1aef1f659267a34adcabb9a6db3594998d9f87667597d64736f6c63430008070033",
  "linkReferences": {},
  "deployedLinkReferences": {}
}